{
  "_format": "hh-sol-artifact-1",
  "contractName": "MostBoxWallet",
  "sourceName": "src/MostBoxWallet.sol",
  "abi": [
    {
      "inputs": [
        {
          "internalType": "address",
          "name": "_usdt",
          "type": "address"
        },
        {
          "internalType": "uint256",
          "name": "_maxWithdrawalPerTx",
          "type": "uint256"
        },
        {
          "internalType": "uint256",
          "name": "_withdrawalFeeBps",
          "type": "uint256"
        }
      ],
      "stateMutability": "nonpayable",
      "type": "constructor"
    },
    {
      "inputs": [],
      "name": "ECDSAInvalidSignature",
      "type": "error"
    },
    {
      "inputs": [
        {
          "internalType": "uint256",
          "name": "length",
          "type": "uint256"
        }
      ],
      "name": "ECDSAInvalidSignatureLength",
      "type": "error"
    },
    {
      "inputs": [
        {
          "internalType": "bytes32",
          "name": "s",
          "type": "bytes32"
        }
      ],
      "name": "ECDSAInvalidSignatureS",
      "type": "error"
    },
    {
      "inputs": [],
      "name": "InvalidShortString",
      "type": "error"
    },
    {
      "inputs": [
        {
          "internalType": "address",
          "name": "owner",
          "type": "address"
        }
      ],
      "name": "OwnableInvalidOwner",
      "type": "error"
    },
    {
      "inputs": [
        {
          "internalType": "address",
          "name": "account",
          "type": "address"
        }
      ],
      "name": "OwnableUnauthorizedAccount",
      "type": "error"
    },
    {
      "inputs": [],
      "name": "ReentrancyGuardReentrantCall",
      "type": "error"
    },
    {
      "inputs": [
        {
          "internalType": "string",
          "name": "str",
          "type": "string"
        }
      ],
      "name": "StringTooLong",
      "type": "error"
    },
    {
      "anonymous": false,
      "inputs": [
        {
          "indexed": true,
          "internalType": "address",
          "name": "user",
          "type": "address"
        },
        {
          "indexed": false,
          "internalType": "uint256",
          "name": "amount",
          "type": "uint256"
        }
      ],
      "name": "Deposited",
      "type": "event"
    },
    {
      "anonymous": false,
      "inputs": [],
      "name": "EIP712DomainChanged",
      "type": "event"
    },
    {
      "anonymous": false,
      "inputs": [
        {
          "indexed": false,
          "internalType": "uint256",
          "name": "newFeeBps",
          "type": "uint256"
        }
      ],
      "name": "FeeUpdated",
      "type": "event"
    },
    {
      "anonymous": false,
      "inputs": [
        {
          "indexed": true,
          "internalType": "address",
          "name": "owner",
          "type": "address"
        },
        {
          "indexed": false,
          "internalType": "uint256",
          "name": "amount",
          "type": "uint256"
        }
      ],
      "name": "FeeWithdrawn",
      "type": "event"
    },
    {
      "anonymous": false,
      "inputs": [
        {
          "indexed": true,
          "internalType": "address",
          "name": "from",
          "type": "address"
        },
        {
          "indexed": true,
          "internalType": "address",
          "name": "to",
          "type": "address"
        },
        {
          "indexed": false,
          "internalType": "uint256",
          "name": "amount",
          "type": "uint256"
        }
      ],
      "name": "InternalTransfer",
      "type": "event"
    },
    {
      "anonymous": false,
      "inputs": [
        {
          "indexed": false,
          "internalType": "uint256",
          "name": "newLimit",
          "type": "uint256"
        }
      ],
      "name": "MaxWithdrawalUpdated",
      "type": "event"
    },
    {
      "anonymous": false,
      "inputs": [
        {
          "indexed": true,
          "internalType": "address",
          "name": "previousOwner",
          "type": "address"
        },
        {
          "indexed": true,
          "internalType": "address",
          "name": "newOwner",
          "type": "address"
        }
      ],
      "name": "OwnershipTransferred",
      "type": "event"
    },
    {
      "anonymous": false,
      "inputs": [
        {
          "indexed": false,
          "internalType": "bool",
          "name": "paused",
          "type": "bool"
        }
      ],
      "name": "PausedStateChanged",
      "type": "event"
    },
    {
      "anonymous": false,
      "inputs": [
        {
          "indexed": true,
          "internalType": "address",
          "name": "user",
          "type": "address"
        },
        {
          "indexed": true,
          "internalType": "address",
          "name": "to",
          "type": "address"
        },
        {
          "indexed": false,
          "internalType": "uint256",
          "name": "amount",
          "type": "uint256"
        },
        {
          "indexed": false,
          "internalType": "uint256",
          "name": "fee",
          "type": "uint256"
        }
      ],
      "name": "Withdrawn",
      "type": "event"
    },
    {
      "inputs": [],
      "name": "accumulatedFees",
      "outputs": [
        {
          "internalType": "uint256",
          "name": "",
          "type": "uint256"
        }
      ],
      "stateMutability": "view",
      "type": "function"
    },
    {
      "inputs": [
        {
          "internalType": "address",
          "name": "",
          "type": "address"
        }
      ],
      "name": "balances",
      "outputs": [
        {
          "internalType": "uint256",
          "name": "",
          "type": "uint256"
        }
      ],
      "stateMutability": "view",
      "type": "function"
    },
    {
      "inputs": [
        {
          "internalType": "uint256",
          "name": "amount",
          "type": "uint256"
        }
      ],
      "name": "deposit",
      "outputs": [],
      "stateMutability": "nonpayable",
      "type": "function"
    },
    {
      "inputs": [],
      "name": "eip712Domain",
      "outputs": [
        {
          "internalType": "bytes1",
          "name": "fields",
          "type": "bytes1"
        },
        {
          "internalType": "string",
          "name": "name",
          "type": "string"
        },
        {
          "internalType": "string",
          "name": "version",
          "type": "string"
        },
        {
          "internalType": "uint256",
          "name": "chainId",
          "type": "uint256"
        },
        {
          "internalType": "address",
          "name": "verifyingContract",
          "type": "address"
        },
        {
          "internalType": "bytes32",
          "name": "salt",
          "type": "bytes32"
        },
        {
          "internalType": "uint256[]",
          "name": "extensions",
          "type": "uint256[]"
        }
      ],
      "stateMutability": "view",
      "type": "function"
    },
    {
      "inputs": [
        {
          "internalType": "address",
          "name": "to",
          "type": "address"
        },
        {
          "internalType": "uint256",
          "name": "amount",
          "type": "uint256"
        },
        {
          "internalType": "uint256",
          "name": "nonce",
          "type": "uint256"
        }
      ],
      "name": "getWithdrawMessageHash",
      "outputs": [
        {
          "internalType": "bytes32",
          "name": "",
          "type": "bytes32"
        }
      ],
      "stateMutability": "view",
      "type": "function"
    },
    {
      "inputs": [
        {
          "internalType": "address",
          "name": "to",
          "type": "address"
        },
        {
          "internalType": "uint256",
          "name": "amount",
          "type": "uint256"
        }
      ],
      "name": "internalTransfer",
      "outputs": [],
      "stateMutability": "nonpayable",
      "type": "function"
    },
    {
      "inputs": [],
      "name": "maxWithdrawalPerTx",
      "outputs": [
        {
          "internalType": "uint256",
          "name": "",
          "type": "uint256"
        }
      ],
      "stateMutability": "view",
      "type": "function"
    },
    {
      "inputs": [
        {
          "internalType": "address",
          "name": "",
          "type": "address"
        }
      ],
      "name": "nonces",
      "outputs": [
        {
          "internalType": "uint256",
          "name": "",
          "type": "uint256"
        }
      ],
      "stateMutability": "view",
      "type": "function"
    },
    {
      "inputs": [],
      "name": "owner",
      "outputs": [
        {
          "internalType": "address",
          "name": "",
          "type": "address"
        }
      ],
      "stateMutability": "view",
      "type": "function"
    },
    {
      "inputs": [],
      "name": "paused",
      "outputs": [
        {
          "internalType": "bool",
          "name": "",
          "type": "bool"
        }
      ],
      "stateMutability": "view",
      "type": "function"
    },
    {
      "inputs": [],
      "name": "renounceOwnership",
      "outputs": [],
      "stateMutability": "nonpayable",
      "type": "function"
    },
    {
      "inputs": [
        {
          "internalType": "uint256",
          "name": "newLimit",
          "type": "uint256"
        }
      ],
      "name": "setMaxWithdrawal",
      "outputs": [],
      "stateMutability": "nonpayable",
      "type": "function"
    },
    {
      "inputs": [
        {
          "internalType": "bool",
          "name": "_paused",
          "type": "bool"
        }
      ],
      "name": "setPaused",
      "outputs": [],
      "stateMutability": "nonpayable",
      "type": "function"
    },
    {
      "inputs": [
        {
          "internalType": "uint256",
          "name": "newFeeBps",
          "type": "uint256"
        }
      ],
      "name": "setWithdrawalFee",
      "outputs": [],
      "stateMutability": "nonpayable",
      "type": "function"
    },
    {
      "inputs": [
        {
          "internalType": "address",
          "name": "newOwner",
          "type": "address"
        }
      ],
      "name": "transferOwnership",
      "outputs": [],
      "stateMutability": "nonpayable",
      "type": "function"
    },
    {
      "inputs": [],
      "name": "usdt",
      "outputs": [
        {
          "internalType": "contract IERC20",
          "name": "",
          "type": "address"
        }
      ],
      "stateMutability": "view",
      "type": "function"
    },
    {
      "inputs": [
        {
          "internalType": "address",
          "name": "user",
          "type": "address"
        },
        {
          "internalType": "address",
          "name": "to",
          "type": "address"
        },
        {
          "internalType": "uint256",
          "name": "amount",
          "type": "uint256"
        },
        {
          "internalType": "uint256",
          "name": "nonce",
          "type": "uint256"
        },
        {
          "internalType": "bytes",
          "name": "signature",
          "type": "bytes"
        }
      ],
      "name": "verifySignature",
      "outputs": [
        {
          "internalType": "bool",
          "name": "",
          "type": "bool"
        }
      ],
      "stateMutability": "view",
      "type": "function"
    },
    {
      "inputs": [
        {
          "internalType": "address",
          "name": "to",
          "type": "address"
        },
        {
          "internalType": "uint256",
          "name": "amount",
          "type": "uint256"
        },
        {
          "internalType": "uint256",
          "name": "nonce",
          "type": "uint256"
        },
        {
          "internalType": "bytes",
          "name": "signature",
          "type": "bytes"
        }
      ],
      "name": "withdraw",
      "outputs": [],
      "stateMutability": "nonpayable",
      "type": "function"
    },
    {
      "inputs": [],
      "name": "withdrawFees",
      "outputs": [],
      "stateMutability": "nonpayable",
      "type": "function"
    },
    {
      "inputs": [],
      "name": "withdrawalFeeBps",
      "outputs": [
        {
          "internalType": "uint256",
          "name": "",
          "type": "uint256"
        }
      ],
      "stateMutability": "view",
      "type": "function"
    }
  ],
  "bytecode": "0x610180604052348015610010575f80fd5b506040516137f83803806137f883398181016040528101906100329190610540565b336040518060400160405280600d81526020017f4d6f7374426f7857616c6c6574000000000000000000000000000000000000008152506040518060400160405280600181526020017f31000000000000000000000000000000000000000000000000000000000000008152506100b25f836102a560201b90919060201c565b61012081815250506100ce6001826102a560201b90919060201c565b6101408181525050818051906020012060e08181525050808051906020012061010081815250504660a0818152505061010b6102f260201b60201c565b608081815250503073ffffffffffffffffffffffffffffffffffffffff1660c08173ffffffffffffffffffffffffffffffffffffffff168152505050505f73ffffffffffffffffffffffffffffffffffffffff168173ffffffffffffffffffffffffffffffffffffffff16036101b8575f6040517f1e4fbdf70000000000000000000000000000000000000000000000000000000081526004016101af919061059f565b60405180910390fd5b6101c78161034c60201b60201c565b5060016101e66101db61040f60201b60201c565b61043860201b60201c565b5f01819055505f73ffffffffffffffffffffffffffffffffffffffff168373ffffffffffffffffffffffffffffffffffffffff160361025a576040517f08c379a000000000000000000000000000000000000000000000000000000000815260040161025190610612565b60405180910390fd5b8273ffffffffffffffffffffffffffffffffffffffff166101608173ffffffffffffffffffffffffffffffffffffffff16815250508160058190555080600681905550505050610ab1565b5f6020835110156102c6576102bf8361044160201b60201c565b90506102ec565b826102d6836104a660201b60201c565b5f0190816102e49190610861565b5060ff5f1b90505b92915050565b5f7f8b73c3c69bb8fe3d512ecc4cf759cc79239f7b179b0ffacaa9a75d522b39400f60e051610100514630604051602001610331959493929190610957565b60405160208183030381529060405280519060200120905090565b5f60025f9054906101000a900473ffffffffffffffffffffffffffffffffffffffff1690508160025f6101000a81548173ffffffffffffffffffffffffffffffffffffffff021916908373ffffffffffffffffffffffffffffffffffffffff1602179055508173ffffffffffffffffffffffffffffffffffffffff168173ffffffffffffffffffffffffffffffffffffffff167f8be0079c531659141344cd1fd0a4f28419497f9722a3daafe3b4186f6b6457e060405160405180910390a35050565b5f7f9b779b17422d0df92223018b32b4d1fa46e071723d6817e2486d003becc55f005f1b905090565b5f819050919050565b5f80829050601f8151111561048d57826040517f305a27a900000000000000000000000000000000000000000000000000000000815260040161048491906109fe565b60405180910390fd5b80518161049990610a4b565b5f1c175f1b915050919050565b5f819050919050565b5f80fd5b5f73ffffffffffffffffffffffffffffffffffffffff82169050919050565b5f6104dc826104b3565b9050919050565b6104ec816104d2565b81146104f6575f80fd5b50565b5f81519050610507816104e3565b92915050565b5f819050919050565b61051f8161050d565b8114610529575f80fd5b50565b5f8151905061053a81610516565b92915050565b5f805f60608486031215610557576105566104af565b5b5f610564868287016104f9565b93505060206105758682870161052c565b92505060406105868682870161052c565b9150509250925092565b610599816104d2565b82525050565b5f6020820190506105b25f830184610590565b92915050565b5f82825260208201905092915050565b7f496e76616c6964205553445420616464726573730000000000000000000000005f82015250565b5f6105fc6014836105b8565b9150610607826105c8565b602082019050919050565b5f6020820190508181035f830152610629816105f0565b9050919050565b5f81519050919050565b7f4e487b71000000000000000000000000000000000000000000000000000000005f52604160045260245ffd5b7f4e487b71000000000000000000000000000000000000000000000000000000005f52602260045260245ffd5b5f60028204905060018216806106ab57607f821691505b6020821081036106be576106bd610667565b5b50919050565b5f819050815f5260205f209050919050565b5f6020601f8301049050919050565b5f82821b905092915050565b5f600883026107207fffffffffffffffffffffffffffffffffffffffffffffffffffffffffffffffff826106e5565b61072a86836106e5565b95508019841693508086168417925050509392505050565b5f819050919050565b5f61076561076061075b8461050d565b610742565b61050d565b9050919050565b5f819050919050565b61077e8361074b565b61079261078a8261076c565b8484546106f1565b825550505050565b5f90565b6107a661079a565b6107b1818484610775565b505050565b5b818110156107d4576107c95f8261079e565b6001810190506107b7565b5050565b601f821115610819576107ea816106c4565b6107f3846106d6565b81016020851015610802578190505b61081661080e856106d6565b8301826107b6565b50505b505050565b5f82821c905092915050565b5f6108395f198460080261081e565b1980831691505092915050565b5f610851838361082a565b9150826002028217905092915050565b61086a82610630565b67ffffffffffffffff8111156108835761088261063a565b5b61088d8254610694565b6108988282856107d8565b5f60209050601f8311600181146108c9575f84156108b7578287015190505b6108c18582610846565b865550610928565b601f1984166108d7866106c4565b5f5b828110156108fe578489015182556001820191506020850194506020810190506108d9565b8683101561091b5784890151610917601f89168261082a565b8355505b6001600288020188555050505b505050505050565b5f819050919050565b61094281610930565b82525050565b6109518161050d565b82525050565b5f60a08201905061096a5f830188610939565b6109776020830187610939565b6109846040830186610939565b6109916060830185610948565b61099e6080830184610590565b9695505050505050565b8281835e5f83830152505050565b5f601f19601f8301169050919050565b5f6109d082610630565b6109da81856105b8565b93506109ea8185602086016109a8565b6109f3816109b6565b840191505092915050565b5f6020820190508181035f830152610a1681846109c6565b905092915050565b5f81519050919050565b5f819050602082019050919050565b5f610a428251610930565b80915050919050565b5f610a5582610a1e565b82610a5f84610a28565b9050610a6a81610a37565b92506020821015610aaa57610aa57fffffffffffffffffffffffffffffffffffffffffffffffffffffffffffffffff836020036008026106e5565b831692505b5050919050565b60805160a05160c05160e05161010051610120516101405161016051612cd7610b215f395f81816107dc015281816109a301528181610db8015261119101525f61160b01525f6115d001525f611be401525f611bc301525f61195301525f6119a901525f6119d20152612cd75ff3fe608060405234801561000f575f80fd5b506004361061012a575f3560e01c80635c975abb116100ab5780638da5cb5b1161006f5780638da5cb5b146102fc578063ac1e50251461031a578063b6b55f2514610336578063f2fde38b14610352578063fd3e3f381461036e5761012a565b80635c975abb14610250578063715018a61461026e5780637ecebe001461027857806380d8af6d146102a857806384b0196e146102d85761012a565b80633926384d116100f25780633926384d146101d25780633e7ba166146101ee578063476343ee1461020a5780634dab420714610214578063587f5ed7146102325761012a565b806304336bb31461012e5780630bd0ca9a1461014c57806316c38b3c1461016857806327e235e3146101845780632f48ab7d146101b4575b5f80fd5b61013661039e565b6040516101439190611c9a565b60405180910390f35b61016660048036038101906101619190611e84565b6103a4565b005b610182600480360381019061017d9190611f39565b610931565b005b61019e60048036038101906101999190611f64565b61098c565b6040516101ab9190611c9a565b60405180910390f35b6101bc6109a1565b6040516101c99190611fea565b60405180910390f35b6101ec60048036038101906101e79190612003565b6109c5565b005b6102086004803603810190610203919061202e565b610a50565b005b610212610d5c565b005b61021c610ef3565b6040516102299190611c9a565b60405180910390f35b61023a610ef9565b6040516102479190611c9a565b60405180910390f35b610258610eff565b604051610265919061207b565b60405180910390f35b610276610f11565b005b610292600480360381019061028d9190611f64565b610f24565b60405161029f9190611c9a565b60405180910390f35b6102c260048036038101906102bd9190612094565b610f39565b6040516102cf919061207b565b60405180910390f35b6102e0610f9a565b6040516102f3979695949392919061229f565b60405180910390f35b61030461103f565b6040516103119190612321565b60405180910390f35b610334600480360381019061032f9190612003565b611067565b005b610350600480360381019061034b9190612003565b6110f5565b005b61036c60048036038101906103679190611f64565b61131b565b005b6103886004803603810190610383919061233a565b61139f565b604051610395919061238a565b60405180910390f35b60065481565b6103ac6113b4565b60085f9054906101000a900460ff16156103fb576040517f08c379a00000000000000000000000000000000000000000000000000000000081526004016103f2906123ed565b60405180910390fd5b5f73ffffffffffffffffffffffffffffffffffffffff168473ffffffffffffffffffffffffffffffffffffffff1603610469576040517f08c379a000000000000000000000000000000000000000000000000000000000815260040161046090612455565b60405180910390fd5b3073ffffffffffffffffffffffffffffffffffffffff168473ffffffffffffffffffffffffffffffffffffffff16036104d7576040517f08c379a00000000000000000000000000000000000000000000000000000000081526004016104ce906124bd565b60405180910390fd5b5f8311610519576040517f08c379a000000000000000000000000000000000000000000000000000000000815260040161051090612525565b60405180910390fd5b60055483111561055e576040517f08c379a00000000000000000000000000000000000000000000000000000000081526004016105559061258d565b60405180910390fd5b5f61056a8585856113d6565b90505f610580838361143a90919063ffffffff16565b90503373ffffffffffffffffffffffffffffffffffffffff168173ffffffffffffffffffffffffffffffffffffffff16146105f0576040517f08c379a00000000000000000000000000000000000000000000000000000000081526004016105e7906125f5565b60405180910390fd5b60045f3373ffffffffffffffffffffffffffffffffffffffff1673ffffffffffffffffffffffffffffffffffffffff1681526020019081526020015f2054841461066f576040517f08c379a00000000000000000000000000000000000000000000000000000000081526004016106669061265d565b60405180910390fd5b60045f3373ffffffffffffffffffffffffffffffffffffffff1673ffffffffffffffffffffffffffffffffffffffff1681526020019081526020015f205f8154809291906106bc906126a8565b91905055508460035f3373ffffffffffffffffffffffffffffffffffffffff1673ffffffffffffffffffffffffffffffffffffffff1681526020019081526020015f20541015610741576040517f08c379a000000000000000000000000000000000000000000000000000000000815260040161073890612739565b60405180910390fd5b5f612710600654876107539190612757565b61075d91906127c5565b90505f818761076c91906127f5565b90508660035f3373ffffffffffffffffffffffffffffffffffffffff1673ffffffffffffffffffffffffffffffffffffffff1681526020019081526020015f205f8282546107ba91906127f5565b925050819055508160075f8282546107d29190612828565b925050819055505f7f000000000000000000000000000000000000000000000000000000000000000073ffffffffffffffffffffffffffffffffffffffff1663a9059cbb8a846040518363ffffffff1660e01b815260040161083592919061285b565b6020604051808303815f875af1158015610851573d5f803e3d5ffd5b505050506040513d601f19601f820116820180604052508101906108759190612896565b9050806108b7576040517f08c379a00000000000000000000000000000000000000000000000000000000081526004016108ae9061290b565b60405180910390fd5b8873ffffffffffffffffffffffffffffffffffffffff163373ffffffffffffffffffffffffffffffffffffffff167f91fb9d98b786c57d74c099ccd2beca1739e9f6a81fb49001ca465c4b7591bbe28486604051610916929190612929565b60405180910390a3505050505061092b611464565b50505050565b61093961147e565b8060085f6101000a81548160ff0219169083151502179055507f9e3a5e37224532dea67b89face185703738a228a6e8a23dee546960180d3be6481604051610981919061207b565b60405180910390a150565b6003602052805f5260405f205f915090505481565b7f000000000000000000000000000000000000000000000000000000000000000081565b6109cd61147e565b5f8111610a0f576040517f08c379a0000000000000000000000000000000000000000000000000000000008152600401610a069061299a565b60405180910390fd5b806005819055507f930d74403f56e3733d3672b5fac6093d6c2b8b870405b8287b9f153cdaa59d7881604051610a459190611c9a565b60405180910390a150565b610a586113b4565b60085f9054906101000a900460ff1615610aa7576040517f08c379a0000000000000000000000000000000000000000000000000000000008152600401610a9e906123ed565b60405180910390fd5b5f73ffffffffffffffffffffffffffffffffffffffff168273ffffffffffffffffffffffffffffffffffffffff1603610b15576040517f08c379a0000000000000000000000000000000000000000000000000000000008152600401610b0c90612455565b60405180910390fd5b3373ffffffffffffffffffffffffffffffffffffffff168273ffffffffffffffffffffffffffffffffffffffff1603610b83576040517f08c379a0000000000000000000000000000000000000000000000000000000008152600401610b7a90612a02565b60405180910390fd5b5f8111610bc5576040517f08c379a0000000000000000000000000000000000000000000000000000000008152600401610bbc90612525565b60405180910390fd5b8060035f3373ffffffffffffffffffffffffffffffffffffffff1673ffffffffffffffffffffffffffffffffffffffff1681526020019081526020015f20541015610c45576040517f08c379a0000000000000000000000000000000000000000000000000000000008152600401610c3c90612739565b60405180910390fd5b8060035f3373ffffffffffffffffffffffffffffffffffffffff1673ffffffffffffffffffffffffffffffffffffffff1681526020019081526020015f205f828254610c9191906127f5565b925050819055508060035f8473ffffffffffffffffffffffffffffffffffffffff1673ffffffffffffffffffffffffffffffffffffffff1681526020019081526020015f205f828254610ce49190612828565b925050819055508173ffffffffffffffffffffffffffffffffffffffff163373ffffffffffffffffffffffffffffffffffffffff167fe2080c8fc8d86c864d8dc081fadaebf2be7191086615e786f954420f13ed122a83604051610d489190611c9a565b60405180910390a3610d58611464565b5050565b610d6461147e565b5f60075411610da8576040517f08c379a0000000000000000000000000000000000000000000000000000000008152600401610d9f90612a6a565b60405180910390fd5b5f60075490505f6007819055505f7f000000000000000000000000000000000000000000000000000000000000000073ffffffffffffffffffffffffffffffffffffffff1663a9059cbb610dfa61103f565b846040518363ffffffff1660e01b8152600401610e1892919061285b565b6020604051808303815f875af1158015610e34573d5f803e3d5ffd5b505050506040513d601f19601f82011682018060405250810190610e589190612896565b905080610e9a576040517f08c379a0000000000000000000000000000000000000000000000000000000008152600401610e919061290b565b60405180910390fd5b610ea261103f565b73ffffffffffffffffffffffffffffffffffffffff167f78473f3f373f7673597f4f0fa5873cb4d375fea6d4339ad6b56dbd411513cb3f83604051610ee79190611c9a565b60405180910390a25050565b60055481565b60075481565b60085f9054906101000a900460ff1681565b610f1961147e565b610f225f611505565b565b6004602052805f5260405f205f915090505481565b5f80610f468686866113d6565b90505f610f5c848361143a90919063ffffffff16565b90508773ffffffffffffffffffffffffffffffffffffffff168173ffffffffffffffffffffffffffffffffffffffff16149250505095945050505050565b5f6060805f805f6060610fab6115c8565b610fb3611602565b46305f801b5f67ffffffffffffffff811115610fd257610fd1611d60565b5b6040519080825280602002602001820160405280156110005781602001602082028036833780820191505090505b507f0f00000000000000000000000000000000000000000000000000000000000000959493929190965096509650965096509650965090919293949596565b5f60025f9054906101000a900473ffffffffffffffffffffffffffffffffffffffff16905090565b61106f61147e565b6103e88111156110b4576040517f08c379a00000000000000000000000000000000000000000000000000000000081526004016110ab90612ad2565b60405180910390fd5b806006819055507f8c4d35e54a3f2ef1134138fd8ea3daee6a3c89e10d2665996babdf70261e2c76816040516110ea9190611c9a565b60405180910390a150565b6110fd6113b4565b60085f9054906101000a900460ff161561114c576040517f08c379a0000000000000000000000000000000000000000000000000000000008152600401611143906123ed565b60405180910390fd5b5f811161118e576040517f08c379a000000000000000000000000000000000000000000000000000000000815260040161118590612525565b60405180910390fd5b5f7f000000000000000000000000000000000000000000000000000000000000000073ffffffffffffffffffffffffffffffffffffffff166323b872dd3330856040518463ffffffff1660e01b81526004016111ec93929190612af0565b6020604051808303815f875af1158015611208573d5f803e3d5ffd5b505050506040513d601f19601f8201168201806040525081019061122c9190612896565b90508061126e576040517f08c379a00000000000000000000000000000000000000000000000000000000081526004016112659061290b565b60405180910390fd5b8160035f3373ffffffffffffffffffffffffffffffffffffffff1673ffffffffffffffffffffffffffffffffffffffff1681526020019081526020015f205f8282546112ba9190612828565b925050819055503373ffffffffffffffffffffffffffffffffffffffff167f2da466a7b24304f47e87fa2e1e5a81b9831ce54fec19055ce277ca2f39ba42c4836040516113079190611c9a565b60405180910390a250611318611464565b50565b61132361147e565b5f73ffffffffffffffffffffffffffffffffffffffff168173ffffffffffffffffffffffffffffffffffffffff1603611393575f6040517f1e4fbdf700000000000000000000000000000000000000000000000000000000815260040161138a9190612321565b60405180910390fd5b61139c81611505565b50565b5f6113ab8484846113d6565b90509392505050565b6113bc61163d565b60026113ce6113c961167e565b6116a7565b5f0181905550565b5f807f7fecea3febf81d5a3a8baa971d651aff5cc3ff951b77e9c54a2ec175aa43349e85858560405160200161140f9493929190612b25565b604051602081830303815290604052805190602001209050611430816116b0565b9150509392505050565b5f805f8061144886866116c9565b925092509250611458828261171e565b82935050505092915050565b600161147661147161167e565b6116a7565b5f0181905550565b611486611880565b73ffffffffffffffffffffffffffffffffffffffff166114a461103f565b73ffffffffffffffffffffffffffffffffffffffff1614611503576114c7611880565b6040517f118cdaa70000000000000000000000000000000000000000000000000000000081526004016114fa9190612321565b60405180910390fd5b565b5f60025f9054906101000a900473ffffffffffffffffffffffffffffffffffffffff1690508160025f6101000a81548173ffffffffffffffffffffffffffffffffffffffff021916908373ffffffffffffffffffffffffffffffffffffffff1602179055508173ffffffffffffffffffffffffffffffffffffffff168173ffffffffffffffffffffffffffffffffffffffff167f8be0079c531659141344cd1fd0a4f28419497f9722a3daafe3b4186f6b6457e060405160405180910390a35050565b60606115fd5f7f000000000000000000000000000000000000000000000000000000000000000061188790919063ffffffff16565b905090565b606061163860017f000000000000000000000000000000000000000000000000000000000000000061188790919063ffffffff16565b905090565b611645611934565b1561167c576040517f3ee5aeb500000000000000000000000000000000000000000000000000000000815260040160405180910390fd5b565b5f7f9b779b17422d0df92223018b32b4d1fa46e071723d6817e2486d003becc55f005f1b905090565b5f819050919050565b5f6116c26116bc611950565b83611a06565b9050919050565b5f805f6041845103611709575f805f602087015192506040870151915060608701515f1a90506116fb88828585611a46565b955095509550505050611717565b5f600285515f1b9250925092505b9250925092565b5f600381111561173157611730612b68565b5b82600381111561174457611743612b68565b5b031561187c576001600381111561175e5761175d612b68565b5b82600381111561177157611770612b68565b5b036117a8576040517ff645eedf00000000000000000000000000000000000000000000000000000000815260040160405180910390fd5b600260038111156117bc576117bb612b68565b5b8260038111156117cf576117ce612b68565b5b0361181357805f1c6040517ffce698f700000000000000000000000000000000000000000000000000000000815260040161180a9190611c9a565b60405180910390fd5b60038081111561182657611825612b68565b5b82600381111561183957611838612b68565b5b0361187b57806040517fd78bce0c000000000000000000000000000000000000000000000000000000008152600401611872919061238a565b60405180910390fd5b5b5050565b5f33905090565b606060ff5f1b83146118a35761189c83611b2d565b905061192e565b8180546118af90612bc2565b80601f01602080910402602001604051908101604052809291908181526020018280546118db90612bc2565b80156119265780601f106118fd57610100808354040283529160200191611926565b820191905f5260205f20905b81548152906001019060200180831161190957829003601f168201915b505050505090505b92915050565b5f600261194761194261167e565b6116a7565b5f015414905090565b5f7f000000000000000000000000000000000000000000000000000000000000000073ffffffffffffffffffffffffffffffffffffffff163073ffffffffffffffffffffffffffffffffffffffff161480156119cb57507f000000000000000000000000000000000000000000000000000000000000000046145b156119f8577f00000000000000000000000000000000000000000000000000000000000000009050611a03565b611a00611b9f565b90505b90565b5f6040517f190100000000000000000000000000000000000000000000000000000000000081528360028201528260228201526042812091505092915050565b5f805f7f7fffffffffffffffffffffffffffffff5d576e7357a4501ddfe92f46681b20a0845f1c1115611a82575f600385925092509250611b23565b5f6001888888886040515f8152602001604052604051611aa59493929190612c0d565b6020604051602081039080840390855afa158015611ac5573d5f803e3d5ffd5b5050506020604051035190505f73ffffffffffffffffffffffffffffffffffffffff168173ffffffffffffffffffffffffffffffffffffffff1603611b16575f60015f801b93509350935050611b23565b805f805f1b935093509350505b9450945094915050565b60605f611b3983611c34565b90505f602067ffffffffffffffff811115611b5757611b56611d60565b5b6040519080825280601f01601f191660200182016040528015611b895781602001600182028036833780820191505090505b5090508181528360208201528092505050919050565b5f7f8b73c3c69bb8fe3d512ecc4cf759cc79239f7b179b0ffacaa9a75d522b39400f7f00000000000000000000000000000000000000000000000000000000000000007f00000000000000000000000000000000000000000000000000000000000000004630604051602001611c19959493929190612c50565b60405160208183030381529060405280519060200120905090565b5f8060ff835f1c169050601f811115611c79576040517fb3512b0c00000000000000000000000000000000000000000000000000000000815260040160405180910390fd5b80915050919050565b5f819050919050565b611c9481611c82565b82525050565b5f602082019050611cad5f830184611c8b565b92915050565b5f604051905090565b5f80fd5b5f80fd5b5f73ffffffffffffffffffffffffffffffffffffffff82169050919050565b5f611ced82611cc4565b9050919050565b611cfd81611ce3565b8114611d07575f80fd5b50565b5f81359050611d1881611cf4565b92915050565b611d2781611c82565b8114611d31575f80fd5b50565b5f81359050611d4281611d1e565b92915050565b5f80fd5b5f80fd5b5f601f19601f8301169050919050565b7f4e487b71000000000000000000000000000000000000000000000000000000005f52604160045260245ffd5b611d9682611d50565b810181811067ffffffffffffffff82111715611db557611db4611d60565b5b80604052505050565b5f611dc7611cb3565b9050611dd38282611d8d565b919050565b5f67ffffffffffffffff821115611df257611df1611d60565b5b611dfb82611d50565b9050602081019050919050565b828183375f83830152505050565b5f611e28611e2384611dd8565b611dbe565b905082815260208101848484011115611e4457611e43611d4c565b5b611e4f848285611e08565b509392505050565b5f82601f830112611e6b57611e6a611d48565b5b8135611e7b848260208601611e16565b91505092915050565b5f805f8060808587031215611e9c57611e9b611cbc565b5b5f611ea987828801611d0a565b9450506020611eba87828801611d34565b9350506040611ecb87828801611d34565b925050606085013567ffffffffffffffff811115611eec57611eeb611cc0565b5b611ef887828801611e57565b91505092959194509250565b5f8115159050919050565b611f1881611f04565b8114611f22575f80fd5b50565b5f81359050611f3381611f0f565b92915050565b5f60208284031215611f4e57611f4d611cbc565b5b5f611f5b84828501611f25565b91505092915050565b5f60208284031215611f7957611f78611cbc565b5b5f611f8684828501611d0a565b91505092915050565b5f819050919050565b5f611fb2611fad611fa884611cc4565b611f8f565b611cc4565b9050919050565b5f611fc382611f98565b9050919050565b5f611fd482611fb9565b9050919050565b611fe481611fca565b82525050565b5f602082019050611ffd5f830184611fdb565b92915050565b5f6020828403121561201857612017611cbc565b5b5f61202584828501611d34565b91505092915050565b5f806040838503121561204457612043611cbc565b5b5f61205185828601611d0a565b925050602061206285828601611d34565b9150509250929050565b61207581611f04565b82525050565b5f60208201905061208e5f83018461206c565b92915050565b5f805f805f60a086880312156120ad576120ac611cbc565b5b5f6120ba88828901611d0a565b95505060206120cb88828901611d0a565b94505060406120dc88828901611d34565b93505060606120ed88828901611d34565b925050608086013567ffffffffffffffff81111561210e5761210d611cc0565b5b61211a88828901611e57565b9150509295509295909350565b5f7fff0000000000000000000000000000000000000000000000000000000000000082169050919050565b61215b81612127565b82525050565b5f81519050919050565b5f82825260208201905092915050565b8281835e5f83830152505050565b5f61219382612161565b61219d818561216b565b93506121ad81856020860161217b565b6121b681611d50565b840191505092915050565b6121ca81611ce3565b82525050565b5f819050919050565b6121e2816121d0565b82525050565b5f81519050919050565b5f82825260208201905092915050565b5f819050602082019050919050565b61221a81611c82565b82525050565b5f61222b8383612211565b60208301905092915050565b5f602082019050919050565b5f61224d826121e8565b61225781856121f2565b935061226283612202565b805f5b838110156122925781516122798882612220565b975061228483612237565b925050600181019050612265565b5085935050505092915050565b5f60e0820190506122b25f83018a612152565b81810360208301526122c48189612189565b905081810360408301526122d88188612189565b90506122e76060830187611c8b565b6122f460808301866121c1565b61230160a08301856121d9565b81810360c08301526123138184612243565b905098975050505050505050565b5f6020820190506123345f8301846121c1565b92915050565b5f805f6060848603121561235157612350611cbc565b5b5f61235e86828701611d0a565b935050602061236f86828701611d34565b925050604061238086828701611d34565b9150509250925092565b5f60208201905061239d5f8301846121d9565b92915050565b7f436f6e74726163742069732070617573656400000000000000000000000000005f82015250565b5f6123d760128361216b565b91506123e2826123a3565b602082019050919050565b5f6020820190508181035f830152612404816123cb565b9050919050565b7f496e76616c696420726563697069656e740000000000000000000000000000005f82015250565b5f61243f60118361216b565b915061244a8261240b565b602082019050919050565b5f6020820190508181035f83015261246c81612433565b9050919050565b7f43616e6e6f7420776974686472617720746f2073656c660000000000000000005f82015250565b5f6124a760178361216b565b91506124b282612473565b602082019050919050565b5f6020820190508181035f8301526124d48161249b565b9050919050565b7f416d6f756e74206d757374206265203e203000000000000000000000000000005f82015250565b5f61250f60128361216b565b915061251a826124db565b602082019050919050565b5f6020820190508181035f83015261253c81612503565b9050919050565b7f45786365656473206d6178207769746864726177616c000000000000000000005f82015250565b5f61257760168361216b565b915061258282612543565b602082019050919050565b5f6020820190508181035f8301526125a48161256b565b9050919050565b7f496e76616c6964207369676e61747572650000000000000000000000000000005f82015250565b5f6125df60118361216b565b91506125ea826125ab565b602082019050919050565b5f6020820190508181035f83015261260c816125d3565b9050919050565b7f496e76616c6964206e6f6e6365000000000000000000000000000000000000005f82015250565b5f612647600d8361216b565b915061265282612613565b602082019050919050565b5f6020820190508181035f8301526126748161263b565b9050919050565b7f4e487b71000000000000000000000000000000000000000000000000000000005f52601160045260245ffd5b5f6126b282611c82565b91507fffffffffffffffffffffffffffffffffffffffffffffffffffffffffffffffff82036126e4576126e361267b565b5b600182019050919050565b7f496e73756666696369656e742062616c616e63650000000000000000000000005f82015250565b5f61272360148361216b565b915061272e826126ef565b602082019050919050565b5f6020820190508181035f83015261275081612717565b9050919050565b5f61276182611c82565b915061276c83611c82565b925082820261277a81611c82565b915082820484148315176127915761279061267b565b5b5092915050565b7f4e487b71000000000000000000000000000000000000000000000000000000005f52601260045260245ffd5b5f6127cf82611c82565b91506127da83611c82565b9250826127ea576127e9612798565b5b828204905092915050565b5f6127ff82611c82565b915061280a83611c82565b92508282039050818111156128225761282161267b565b5b92915050565b5f61283282611c82565b915061283d83611c82565b92508282019050808211156128555761285461267b565b5b92915050565b5f60408201905061286e5f8301856121c1565b61287b6020830184611c8b565b9392505050565b5f8151905061289081611f0f565b92915050565b5f602082840312156128ab576128aa611cbc565b5b5f6128b884828501612882565b91505092915050565b7f55534454207472616e73666572206661696c65640000000000000000000000005f82015250565b5f6128f560148361216b565b9150612900826128c1565b602082019050919050565b5f6020820190508181035f830152612922816128e9565b9050919050565b5f60408201905061293c5f830185611c8b565b6129496020830184611c8b565b9392505050565b7f496e76616c6964206c696d6974000000000000000000000000000000000000005f82015250565b5f612984600d8361216b565b915061298f82612950565b602082019050919050565b5f6020820190508181035f8301526129b181612978565b9050919050565b7f43616e6e6f74207472616e7366657220746f2073656c660000000000000000005f82015250565b5f6129ec60178361216b565b91506129f7826129b8565b602082019050919050565b5f6020820190508181035f830152612a19816129e0565b9050919050565b7f4e6f206665657320746f207769746864726177000000000000000000000000005f82015250565b5f612a5460138361216b565b9150612a5f82612a20565b602082019050919050565b5f6020820190508181035f830152612a8181612a48565b9050919050565b7f46656520746f6f206869676800000000000000000000000000000000000000005f82015250565b5f612abc600c8361216b565b9150612ac782612a88565b602082019050919050565b5f6020820190508181035f830152612ae981612ab0565b9050919050565b5f606082019050612b035f8301866121c1565b612b1060208301856121c1565b612b1d6040830184611c8b565b949350505050565b5f608082019050612b385f8301876121d9565b612b4560208301866121c1565b612b526040830185611c8b565b612b5f6060830184611c8b565b95945050505050565b7f4e487b71000000000000000000000000000000000000000000000000000000005f52602160045260245ffd5b7f4e487b71000000000000000000000000000000000000000000000000000000005f52602260045260245ffd5b5f6002820490506001821680612bd957607f821691505b602082108103612bec57612beb612b95565b5b50919050565b5f60ff82169050919050565b612c0781612bf2565b82525050565b5f608082019050612c205f8301876121d9565b612c2d6020830186612bfe565b612c3a60408301856121d9565b612c4760608301846121d9565b95945050505050565b5f60a082019050612c635f8301886121d9565b612c7060208301876121d9565b612c7d60408301866121d9565b612c8a6060830185611c8b565b612c9760808301846121c1565b969550505050505056fea2646970667358221220c63a7d381181bf18079c1a02490f852828c5960ef474ad0cba0b18fb522da8f664736f6c63430008190033",
  "linkReferences": {},
  "deployedLinkReferences": {}
}